{
  "contractName": "WunbitToken",
  "abi": [
    {
      "constant": true,
      "inputs": [],
      "name": "totalSupply",
      "outputs": [
        {
          "name": "",
          "type": "uint256"
        }
      ],
      "payable": false,
      "stateMutability": "view",
      "type": "function"
    },
    {
      "inputs": [],
      "payable": false,
      "stateMutability": "nonpayable",
      "type": "constructor"
    }
  ],
  "bytecode": "0x608060405234801561001057600080fd5b50636b49d200600081905550609e8061002a6000396000f3fe608060405260043610603f576000357c0100000000000000000000000000000000000000000000000000000000900463ffffffff16806318160ddd146044575b600080fd5b348015604f57600080fd5b506056606c565b6040518082815260200191505060405180910390f35b6000548156fea165627a7a723058203ff073889def2d25da007d19c95791d5070ae55c608a79055837ebcec759be420029",
  "source": "pragma solidity ^0.5.0;\r\n\r\ncontract WunbitToken {\r\n  // Constructor\r\n  // Set the total number of tokens\r\n  // Read the total number of tokens\r\n  uint256 public totalSupply;\r\n\r\n  constructor () public {\r\n    totalSupply = 1800000000;\r\n  }\r\n}\r\n",
  "sourcePath": "E:/dropbox/projects/wunbit.com/development/solidity/wunbit-token/contracts/WunbitToken.sol",
  "compiler": {
    "name": "solc",
    "version": "0.5.0+commit.1d4f565a.Emscripten.clang"
  },
  "schemaVersion": "3.0.9",
  "updatedAt": "2019-05-24T22:40:48.901Z",
  "devdoc": {
    "methods": {}
  },
  "userdoc": {
    "methods": {}
  }
}